{
  "_format": "hh-sol-artifact-1",
  "contractName": "COCO",
  "sourceName": "contracts/COCO.sol",
  "abi": [
    {
      "inputs": [
        {
          "internalType": "string",
          "name": "_name",
          "type": "string"
        },
        {
          "internalType": "string",
          "name": "_symbol",
          "type": "string"
        },
        {
          "internalType": "uint256",
          "name": "_totalSupply",
          "type": "uint256"
        }
      ],
      "stateMutability": "nonpayable",
      "type": "constructor"
    },
    {
      "anonymous": false,
      "inputs": [
        {
          "indexed": true,
          "internalType": "address",
          "name": "owner",
          "type": "address"
        },
        {
          "indexed": true,
          "internalType": "address",
          "name": "spender",
          "type": "address"
        },
        {
          "indexed": false,
          "internalType": "uint256",
          "name": "value",
          "type": "uint256"
        }
      ],
      "name": "Approval",
      "type": "event"
    },
    {
      "anonymous": false,
      "inputs": [
        {
          "indexed": true,
          "internalType": "address",
          "name": "sender",
          "type": "address"
        },
        {
          "indexed": true,
          "internalType": "address",
          "name": "recipient",
          "type": "address"
        }
      ],
      "name": "BindTop",
      "type": "event"
    },
    {
      "anonymous": false,
      "inputs": [
        {
          "indexed": true,
          "internalType": "address",
          "name": "sender",
          "type": "address"
        },
        {
          "indexed": true,
          "internalType": "address",
          "name": "recipient",
          "type": "address"
        },
        {
          "indexed": false,
          "internalType": "uint256",
          "name": "feeAmount",
          "type": "uint256"
        }
      ],
      "name": "FeeLog",
      "type": "event"
    },
    {
      "anonymous": false,
      "inputs": [
        {
          "indexed": true,
          "internalType": "address",
          "name": "previousOwner",
          "type": "address"
        },
        {
          "indexed": true,
          "internalType": "address",
          "name": "newOwner",
          "type": "address"
        }
      ],
      "name": "OwnershipTransferred",
      "type": "event"
    },
    {
      "anonymous": false,
      "inputs": [
        {
          "indexed": true,
          "internalType": "address",
          "name": "from",
          "type": "address"
        },
        {
          "indexed": true,
          "internalType": "address",
          "name": "to",
          "type": "address"
        },
        {
          "indexed": false,
          "internalType": "uint256",
          "name": "value",
          "type": "uint256"
        }
      ],
      "name": "Transfer",
      "type": "event"
    },
    {
      "inputs": [
        {
          "internalType": "address",
          "name": "owner",
          "type": "address"
        },
        {
          "internalType": "address",
          "name": "spender",
          "type": "address"
        }
      ],
      "name": "allowance",
      "outputs": [
        {
          "internalType": "uint256",
          "name": "",
          "type": "uint256"
        }
      ],
      "stateMutability": "view",
      "type": "function"
    },
    {
      "inputs": [
        {
          "internalType": "address",
          "name": "spender",
          "type": "address"
        },
        {
          "internalType": "uint256",
          "name": "amount",
          "type": "uint256"
        }
      ],
      "name": "approve",
      "outputs": [
        {
          "internalType": "bool",
          "name": "",
          "type": "bool"
        }
      ],
      "stateMutability": "nonpayable",
      "type": "function"
    },
    {
      "inputs": [
        {
          "internalType": "address",
          "name": "account",
          "type": "address"
        }
      ],
      "name": "balanceOf",
      "outputs": [
        {
          "internalType": "uint256",
          "name": "",
          "type": "uint256"
        }
      ],
      "stateMutability": "view",
      "type": "function"
    },
    {
      "inputs": [
        {
          "internalType": "address",
          "name": "",
          "type": "address"
        }
      ],
      "name": "banList",
      "outputs": [
        {
          "internalType": "bool",
          "name": "",
          "type": "bool"
        }
      ],
      "stateMutability": "view",
      "type": "function"
    },
    {
      "inputs": [
        {
          "internalType": "address[]",
          "name": "recipients",
          "type": "address[]"
        },
        {
          "internalType": "uint256[]",
          "name": "amounts",
          "type": "uint256[]"
        }
      ],
      "name": "batchTransfer",
      "outputs": [],
      "stateMutability": "nonpayable",
      "type": "function"
    },
    {
      "inputs": [],
      "name": "bindValid",
      "outputs": [
        {
          "internalType": "uint256",
          "name": "",
          "type": "uint256"
        }
      ],
      "stateMutability": "view",
      "type": "function"
    },
    {
      "inputs": [
        {
          "internalType": "uint256",
          "name": "amount",
          "type": "uint256"
        }
      ],
      "name": "burn",
      "outputs": [],
      "stateMutability": "nonpayable",
      "type": "function"
    },
    {
      "inputs": [
        {
          "internalType": "address",
          "name": "account",
          "type": "address"
        },
        {
          "internalType": "uint256",
          "name": "amount",
          "type": "uint256"
        }
      ],
      "name": "burnFrom",
      "outputs": [],
      "stateMutability": "nonpayable",
      "type": "function"
    },
    {
      "inputs": [],
      "name": "decimals",
      "outputs": [
        {
          "internalType": "uint8",
          "name": "",
          "type": "uint8"
        }
      ],
      "stateMutability": "view",
      "type": "function"
    },
    {
      "inputs": [
        {
          "internalType": "address",
          "name": "spender",
          "type": "address"
        },
        {
          "internalType": "uint256",
          "name": "subtractedValue",
          "type": "uint256"
        }
      ],
      "name": "decreaseAllowance",
      "outputs": [
        {
          "internalType": "bool",
          "name": "",
          "type": "bool"
        }
      ],
      "stateMutability": "nonpayable",
      "type": "function"
    },
    {
      "inputs": [
        {
          "internalType": "address",
          "name": "spender",
          "type": "address"
        },
        {
          "internalType": "uint256",
          "name": "addedValue",
          "type": "uint256"
        }
      ],
      "name": "increaseAllowance",
      "outputs": [
        {
          "internalType": "bool",
          "name": "",
          "type": "bool"
        }
      ],
      "stateMutability": "nonpayable",
      "type": "function"
    },
    {
      "inputs": [],
      "name": "name",
      "outputs": [
        {
          "internalType": "string",
          "name": "",
          "type": "string"
        }
      ],
      "stateMutability": "view",
      "type": "function"
    },
    {
      "inputs": [],
      "name": "owner",
      "outputs": [
        {
          "internalType": "address",
          "name": "",
          "type": "address"
        }
      ],
      "stateMutability": "view",
      "type": "function"
    },
    {
      "inputs": [],
      "name": "pair",
      "outputs": [
        {
          "internalType": "address",
          "name": "",
          "type": "address"
        }
      ],
      "stateMutability": "view",
      "type": "function"
    },
    {
      "inputs": [],
      "name": "renounceOwnership",
      "outputs": [],
      "stateMutability": "nonpayable",
      "type": "function"
    },
    {
      "inputs": [],
      "name": "rewardPool",
      "outputs": [
        {
          "internalType": "address",
          "name": "",
          "type": "address"
        }
      ],
      "stateMutability": "view",
      "type": "function"
    },
    {
      "inputs": [
        {
          "internalType": "address",
          "name": "_address",
          "type": "address"
        },
        {
          "internalType": "bool",
          "name": "_bool",
          "type": "bool"
        }
      ],
      "name": "setBanList",
      "outputs": [],
      "stateMutability": "nonpayable",
      "type": "function"
    },
    {
      "inputs": [
        {
          "internalType": "uint256",
          "name": "_bindValid",
          "type": "uint256"
        }
      ],
      "name": "setBindValid",
      "outputs": [],
      "stateMutability": "nonpayable",
      "type": "function"
    },
    {
      "inputs": [
        {
          "internalType": "address",
          "name": "_pair",
          "type": "address"
        }
      ],
      "name": "setPair",
      "outputs": [],
      "stateMutability": "nonpayable",
      "type": "function"
    },
    {
      "inputs": [
        {
          "internalType": "address",
          "name": "_pool",
          "type": "address"
        }
      ],
      "name": "setRewardPool",
      "outputs": [],
      "stateMutability": "nonpayable",
      "type": "function"
    },
    {
      "inputs": [],
      "name": "symbol",
      "outputs": [
        {
          "internalType": "string",
          "name": "",
          "type": "string"
        }
      ],
      "stateMutability": "view",
      "type": "function"
    },
    {
      "inputs": [],
      "name": "totalSupply",
      "outputs": [
        {
          "internalType": "uint256",
          "name": "",
          "type": "uint256"
        }
      ],
      "stateMutability": "view",
      "type": "function"
    },
    {
      "inputs": [
        {
          "internalType": "address",
          "name": "to",
          "type": "address"
        },
        {
          "internalType": "uint256",
          "name": "amount",
          "type": "uint256"
        }
      ],
      "name": "transfer",
      "outputs": [
        {
          "internalType": "bool",
          "name": "",
          "type": "bool"
        }
      ],
      "stateMutability": "nonpayable",
      "type": "function"
    },
    {
      "inputs": [
        {
          "internalType": "address",
          "name": "from",
          "type": "address"
        },
        {
          "internalType": "address",
          "name": "to",
          "type": "address"
        },
        {
          "internalType": "uint256",
          "name": "amount",
          "type": "uint256"
        }
      ],
      "name": "transferFrom",
      "outputs": [
        {
          "internalType": "bool",
          "name": "",
          "type": "bool"
        }
      ],
      "stateMutability": "nonpayable",
      "type": "function"
    },
    {
      "inputs": [
        {
          "internalType": "address",
          "name": "newOwner",
          "type": "address"
        }
      ],
      "name": "transferOwnership",
      "outputs": [],
      "stateMutability": "nonpayable",
      "type": "function"
    }
  ],
  "bytecode": "0x60806040523480156200001157600080fd5b50604051620032bb380380620032bb8339818101604052810190620000379190620004e9565b828281600390816200004a9190620007c4565b5080600490816200005c9190620007c4565b5050506200007f62000073620000cd60201b60201c565b620000d560201b60201c565b6000620000916200019b60201b60201c565b60ff16600a620000a2919062000a2e565b82620000af919062000a7f565b9050620000c33382620001a460201b60201c565b5050505062000bb6565b600033905090565b6000600560009054906101000a900473ffffffffffffffffffffffffffffffffffffffff16905081600560006101000a81548173ffffffffffffffffffffffffffffffffffffffff021916908373ffffffffffffffffffffffffffffffffffffffff1602179055508173ffffffffffffffffffffffffffffffffffffffff168173ffffffffffffffffffffffffffffffffffffffff167f8be0079c531659141344cd1fd0a4f28419497f9722a3daafe3b4186f6b6457e060405160405180910390a35050565b60006012905090565b600073ffffffffffffffffffffffffffffffffffffffff168273ffffffffffffffffffffffffffffffffffffffff160362000216576040517f08c379a00000000000000000000000000000000000000000000000000000000081526004016200020d9062000b2b565b60405180910390fd5b6200022a600083836200031160201b60201c565b80600260008282546200023e919062000b4d565b92505081905550806000808473ffffffffffffffffffffffffffffffffffffffff1673ffffffffffffffffffffffffffffffffffffffff168152602001908152602001600020600082825401925050819055508173ffffffffffffffffffffffffffffffffffffffff16600073ffffffffffffffffffffffffffffffffffffffff167fddf252ad1be2c89b69c2b068fc378daa952ba7f163c4a11628f55a4df523b3ef83604051620002f1919062000b99565b60405180910390a36200030d600083836200031660201b60201c565b5050565b505050565b505050565b6000604051905090565b600080fd5b600080fd5b600080fd5b600080fd5b6000601f19601f8301169050919050565b7f4e487b7100000000000000000000000000000000000000000000000000000000600052604160045260246000fd5b620003848262000339565b810181811067ffffffffffffffff82111715620003a657620003a56200034a565b5b80604052505050565b6000620003bb6200031b565b9050620003c9828262000379565b919050565b600067ffffffffffffffff821115620003ec57620003eb6200034a565b5b620003f78262000339565b9050602081019050919050565b60005b838110156200042457808201518184015260208101905062000407565b60008484015250505050565b6000620004476200044184620003ce565b620003af565b90508281526020810184848401111562000466576200046562000334565b5b6200047384828562000404565b509392505050565b600082601f8301126200049357620004926200032f565b5b8151620004a584826020860162000430565b91505092915050565b6000819050919050565b620004c381620004ae565b8114620004cf57600080fd5b50565b600081519050620004e381620004b8565b92915050565b60008060006060848603121562000505576200050462000325565b5b600084015167ffffffffffffffff8111156200052657620005256200032a565b5b62000534868287016200047b565b935050602084015167ffffffffffffffff8111156200055857620005576200032a565b5b62000566868287016200047b565b92505060406200057986828701620004d2565b9150509250925092565b600081519050919050565b7f4e487b7100000000000000000000000000000000000000000000000000000000600052602260045260246000fd5b60006002820490506001821680620005d657607f821691505b602082108103620005ec57620005eb6200058e565b5b50919050565b60008190508160005260206000209050919050565b60006020601f8301049050919050565b600082821b905092915050565b600060088302620006567fffffffffffffffffffffffffffffffffffffffffffffffffffffffffffffffff8262000617565b62000662868362000617565b95508019841693508086168417925050509392505050565b6000819050919050565b6000620006a56200069f6200069984620004ae565b6200067a565b620004ae565b9050919050565b6000819050919050565b620006c18362000684565b620006d9620006d082620006ac565b84845462000624565b825550505050565b600090565b620006f0620006e1565b620006fd818484620006b6565b505050565b5b81811015620007255762000719600082620006e6565b60018101905062000703565b5050565b601f82111562000774576200073e81620005f2565b620007498462000607565b8101602085101562000759578190505b62000771620007688562000607565b83018262000702565b50505b505050565b600082821c905092915050565b6000620007996000198460080262000779565b1980831691505092915050565b6000620007b4838362000786565b9150826002028217905092915050565b620007cf8262000583565b67ffffffffffffffff811115620007eb57620007ea6200034a565b5b620007f78254620005bd565b6200080482828562000729565b600060209050601f8311600181146200083c576000841562000827578287015190505b620008338582620007a6565b865550620008a3565b601f1984166200084c86620005f2565b60005b8281101562000876578489015182556001820191506020850194506020810190506200084f565b8683101562000896578489015162000892601f89168262000786565b8355505b6001600288020188555050505b505050505050565b7f4e487b7100000000000000000000000000000000000000000000000000000000600052601160045260246000fd5b60008160011c9050919050565b6000808291508390505b60018511156200093957808604811115620009115762000910620008ab565b5b6001851615620009215780820291505b80810290506200093185620008da565b9450620008f1565b94509492505050565b60008262000954576001905062000a27565b8162000964576000905062000a27565b81600181146200097d57600281146200098857620009be565b600191505062000a27565b60ff8411156200099d576200099c620008ab565b5b8360020a915084821115620009b757620009b6620008ab565b5b5062000a27565b5060208310610133831016604e8410600b8410161715620009f85782820a905083811115620009f257620009f1620008ab565b5b62000a27565b62000a078484846001620008e7565b9250905081840481111562000a215762000a20620008ab565b5b81810290505b9392505050565b600062000a3b82620004ae565b915062000a4883620004ae565b925062000a777fffffffffffffffffffffffffffffffffffffffffffffffffffffffffffffffff848462000942565b905092915050565b600062000a8c82620004ae565b915062000a9983620004ae565b925082820262000aa981620004ae565b9150828204841483151762000ac35762000ac2620008ab565b5b5092915050565b600082825260208201905092915050565b7f45524332303a206d696e7420746f20746865207a65726f206164647265737300600082015250565b600062000b13601f8362000aca565b915062000b208262000adb565b602082019050919050565b6000602082019050818103600083015262000b468162000b04565b9050919050565b600062000b5a82620004ae565b915062000b6783620004ae565b925082820190508082111562000b825762000b81620008ab565b5b92915050565b62000b9381620004ae565b82525050565b600060208201905062000bb0600083018462000b88565b92915050565b6126f58062000bc66000396000f3fe608060405234801561001057600080fd5b50600436106101735760003560e01c8063715018a6116100de5780638da5cb5b11610097578063a8aa1b3111610071578063a8aa1b3114610438578063a9059cbb14610456578063dd62ed3e14610486578063f2fde38b146104b657610173565b80638da5cb5b146103cc57806395d89b41146103ea578063a457c2d71461040857610173565b8063715018a61461033457806378238c371461033e57806379cc67901461035a5780638187f5161461037657806388d695b2146103925780638c981e81146103ae57610173565b80633950935111610130578063395093511461026257806342966c68146102925780634bc4a28c146102ae5780635a95972d146102ca57806366666aa9146102e657806370a082311461030457610173565b806306fdde0314610178578063095ea7b31461019657806318160ddd146101c657806323b872dd146101e4578063307bf9d514610214578063313ce56714610244575b600080fd5b6101806104d2565b60405161018d919061180c565b60405180910390f35b6101b060048036038101906101ab91906118d6565b610564565b6040516101bd9190611931565b60405180910390f35b6101ce610587565b6040516101db919061195b565b60405180910390f35b6101fe60048036038101906101f99190611976565b610591565b60405161020b9190611931565b60405180910390f35b61022e600480360381019061022991906119c9565b6105c0565b60405161023b9190611931565b60405180910390f35b61024c6105e0565b6040516102599190611a12565b60405180910390f35b61027c600480360381019061027791906118d6565b6105e9565b6040516102899190611931565b60405180910390f35b6102ac60048036038101906102a79190611a2d565b610620565b005b6102c860048036038101906102c39190611a2d565b610634565b005b6102e460048036038101906102df9190611a86565b610646565b005b6102ee6106a9565b6040516102fb9190611ad5565b60405180910390f35b61031e600480360381019061031991906119c9565b6106cf565b60405161032b919061195b565b60405180910390f35b61033c610717565b005b610358600480360381019061035391906119c9565b61072b565b005b610374600480360381019061036f91906118d6565b610777565b005b610390600480360381019061038b91906119c9565b610797565b005b6103ac60048036038101906103a79190611cfb565b6107e3565b005b6103b66108ce565b6040516103c3919061195b565b60405180910390f35b6103d46108d4565b6040516103e19190611ad5565b60405180910390f35b6103f26108fe565b6040516103ff919061180c565b60405180910390f35b610422600480360381019061041d91906118d6565b610990565b60405161042f9190611931565b60405180910390f35b610440610a07565b60405161044d9190611ad5565b60405180910390f35b610470600480360381019061046b91906118d6565b610a2d565b60405161047d9190611931565b60405180910390f35b6104a0600480360381019061049b9190611d73565b610a50565b6040516104ad919061195b565b60405180910390f35b6104d060048036038101906104cb91906119c9565b610ad7565b005b6060600380546104e190611de2565b80601f016020809104026020016040519081016040528092919081815260200182805461050d90611de2565b801561055a5780601f1061052f5761010080835404028352916020019161055a565b820191906000526020600020905b81548152906001019060200180831161053d57829003601f168201915b5050505050905090565b60008061056f610b5a565b905061057c818585610b62565b600191505092915050565b6000600254905090565b60008061059c610b5a565b90506105a9858285610d2b565b6105b4858585610db7565b60019150509392505050565b60096020528060005260406000206000915054906101000a900460ff1681565b60006012905090565b6000806105f4610b5a565b90506106158185856106068589610a50565b6106109190611e42565b610b62565b600191505092915050565b61063161062b610b5a565b82611001565b50565b61063c6111ce565b8060068190555050565b61064e6111ce565b80600960008473ffffffffffffffffffffffffffffffffffffffff1673ffffffffffffffffffffffffffffffffffffffff16815260200190815260200160002060006101000a81548160ff0219169083151502179055505050565b600860009054906101000a900473ffffffffffffffffffffffffffffffffffffffff1681565b60008060008373ffffffffffffffffffffffffffffffffffffffff1673ffffffffffffffffffffffffffffffffffffffff168152602001908152602001600020549050919050565b61071f6111ce565b610729600061124c565b565b6107336111ce565b80600860006101000a81548173ffffffffffffffffffffffffffffffffffffffff021916908373ffffffffffffffffffffffffffffffffffffffff16021790555050565b61078982610783610b5a565b83610d2b565b6107938282611001565b5050565b61079f6111ce565b80600760006101000a81548173ffffffffffffffffffffffffffffffffffffffff021916908373ffffffffffffffffffffffffffffffffffffffff16021790555050565b8051825114610827576040517f08c379a000000000000000000000000000000000000000000000000000000000815260040161081e90611ec2565b60405180910390fd5b600082511161086b576040517f08c379a000000000000000000000000000000000000000000000000000000000815260040161086290611f2e565b60405180910390fd5b60005b82518110156108c9576108b63384838151811061088e5761088d611f4e565b5b60200260200101518484815181106108a9576108a8611f4e565b5b6020026020010151611312565b80806108c190611f7d565b91505061086e565b505050565b60065481565b6000600560009054906101000a900473ffffffffffffffffffffffffffffffffffffffff16905090565b60606004805461090d90611de2565b80601f016020809104026020016040519081016040528092919081815260200182805461093990611de2565b80156109865780601f1061095b57610100808354040283529160200191610986565b820191906000526020600020905b81548152906001019060200180831161096957829003601f168201915b5050505050905090565b60008061099b610b5a565b905060006109a98286610a50565b9050838110156109ee576040517f08c379a00000000000000000000000000000000000000000000000000000000081526004016109e590612037565b60405180910390fd5b6109fb8286868403610b62565b60019250505092915050565b600760009054906101000a900473ffffffffffffffffffffffffffffffffffffffff1681565b600080610a38610b5a565b9050610a45818585610db7565b600191505092915050565b6000600160008473ffffffffffffffffffffffffffffffffffffffff1673ffffffffffffffffffffffffffffffffffffffff16815260200190815260200160002060008373ffffffffffffffffffffffffffffffffffffffff1673ffffffffffffffffffffffffffffffffffffffff16815260200190815260200160002054905092915050565b610adf6111ce565b600073ffffffffffffffffffffffffffffffffffffffff168173ffffffffffffffffffffffffffffffffffffffff1603610b4e576040517f08c379a0000000000000000000000000000000000000000000000000000000008152600401610b45906120c9565b60405180910390fd5b610b578161124c565b50565b600033905090565b600073ffffffffffffffffffffffffffffffffffffffff168373ffffffffffffffffffffffffffffffffffffffff1603610bd1576040517f08c379a0000000000000000000000000000000000000000000000000000000008152600401610bc89061215b565b60405180910390fd5b600073ffffffffffffffffffffffffffffffffffffffff168273ffffffffffffffffffffffffffffffffffffffff1603610c40576040517f08c379a0000000000000000000000000000000000000000000000000000000008152600401610c37906121ed565b60405180910390fd5b80600160008573ffffffffffffffffffffffffffffffffffffffff1673ffffffffffffffffffffffffffffffffffffffff16815260200190815260200160002060008473ffffffffffffffffffffffffffffffffffffffff1673ffffffffffffffffffffffffffffffffffffffff168152602001908152602001600020819055508173ffffffffffffffffffffffffffffffffffffffff168373ffffffffffffffffffffffffffffffffffffffff167f8c5be1e5ebec7d5bd14f71427d1e84f3dd0314c0f7b2291e5b200ac8c7c3b92583604051610d1e919061195b565b60405180910390a3505050565b6000610d378484610a50565b90507fffffffffffffffffffffffffffffffffffffffffffffffffffffffffffffffff8114610db15781811015610da3576040517f08c379a0000000000000000000000000000000000000000000000000000000008152600401610d9a90612259565b60405180910390fd5b610db08484848403610b62565b5b50505050565b600960008473ffffffffffffffffffffffffffffffffffffffff1673ffffffffffffffffffffffffffffffffffffffff16815260200190815260200160002060009054906101000a900460ff16158015610e5b5750600960008373ffffffffffffffffffffffffffffffffffffffff1673ffffffffffffffffffffffffffffffffffffffff16815260200190815260200160002060009054906101000a900460ff16155b610e9a576040517f08c379a0000000000000000000000000000000000000000000000000000000008152600401610e91906122c5565b60405180910390fd5b8273ffffffffffffffffffffffffffffffffffffffff16600760009054906101000a900473ffffffffffffffffffffffffffffffffffffffff1673ffffffffffffffffffffffffffffffffffffffff161480610f4357508173ffffffffffffffffffffffffffffffffffffffff16600760009054906101000a900473ffffffffffffffffffffffffffffffffffffffff1673ffffffffffffffffffffffffffffffffffffffff16145b15610f5857610f53838383611588565b610ffc565b6006548110158015610f6c57506000600654115b8015610f7e5750610f7c83611733565b155b8015610f905750610f8e82611733565b155b15610ff0578173ffffffffffffffffffffffffffffffffffffffff168373ffffffffffffffffffffffffffffffffffffffff167f5b8421274bf05177faf963237803778ddbf6b7d15b035acd91c3178945f6ba0260405160405180910390a35b610ffb838383611312565b5b505050565b600073ffffffffffffffffffffffffffffffffffffffff168273ffffffffffffffffffffffffffffffffffffffff1603611070576040517f08c379a000000000000000000000000000000000000000000000000000000000815260040161106790612357565b60405180910390fd5b61107c82600083611746565b60008060008473ffffffffffffffffffffffffffffffffffffffff1673ffffffffffffffffffffffffffffffffffffffff16815260200190815260200160002054905081811015611102576040517f08c379a00000000000000000000000000000000000000000000000000000000081526004016110f9906123e9565b60405180910390fd5b8181036000808573ffffffffffffffffffffffffffffffffffffffff1673ffffffffffffffffffffffffffffffffffffffff1681526020019081526020016000208190555081600260008282540392505081905550600073ffffffffffffffffffffffffffffffffffffffff168373ffffffffffffffffffffffffffffffffffffffff167fddf252ad1be2c89b69c2b068fc378daa952ba7f163c4a11628f55a4df523b3ef846040516111b5919061195b565b60405180910390a36111c98360008461174b565b505050565b6111d6610b5a565b73ffffffffffffffffffffffffffffffffffffffff166111f46108d4565b73ffffffffffffffffffffffffffffffffffffffff161461124a576040517f08c379a000000000000000000000000000000000000000000000000000000000815260040161124190612455565b60405180910390fd5b565b6000600560009054906101000a900473ffffffffffffffffffffffffffffffffffffffff16905081600560006101000a81548173ffffffffffffffffffffffffffffffffffffffff021916908373ffffffffffffffffffffffffffffffffffffffff1602179055508173ffffffffffffffffffffffffffffffffffffffff168173ffffffffffffffffffffffffffffffffffffffff167f8be0079c531659141344cd1fd0a4f28419497f9722a3daafe3b4186f6b6457e060405160405180910390a35050565b600073ffffffffffffffffffffffffffffffffffffffff168373ffffffffffffffffffffffffffffffffffffffff1603611381576040517f08c379a0000000000000000000000000000000000000000000000000000000008152600401611378906124e7565b60405180910390fd5b600073ffffffffffffffffffffffffffffffffffffffff168273ffffffffffffffffffffffffffffffffffffffff16036113f0576040517f08c379a00000000000000000000000000000000000000000000000000000000081526004016113e790612579565b60405180910390fd5b6113fb838383611746565b60008060008573ffffffffffffffffffffffffffffffffffffffff1673ffffffffffffffffffffffffffffffffffffffff16815260200190815260200160002054905081811015611481576040517f08c379a00000000000000000000000000000000000000000000000000000000081526004016114789061260b565b60405180910390fd5b8181036000808673ffffffffffffffffffffffffffffffffffffffff1673ffffffffffffffffffffffffffffffffffffffff16815260200190815260200160002081905550816000808573ffffffffffffffffffffffffffffffffffffffff1673ffffffffffffffffffffffffffffffffffffffff168152602001908152602001600020600082825401925050819055508273ffffffffffffffffffffffffffffffffffffffff168473ffffffffffffffffffffffffffffffffffffffff167fddf252ad1be2c89b69c2b068fc378daa952ba7f163c4a11628f55a4df523b3ef8460405161156f919061195b565b60405180910390a361158284848461174b565b50505050565b600073ffffffffffffffffffffffffffffffffffffffff168373ffffffffffffffffffffffffffffffffffffffff16036115f7576040517f08c379a00000000000000000000000000000000000000000000000000000000081526004016115ee906124e7565b60405180910390fd5b600073ffffffffffffffffffffffffffffffffffffffff168273ffffffffffffffffffffffffffffffffffffffff1603611666576040517f08c379a000000000000000000000000000000000000000000000000000000000815260040161165d90612579565b60405180910390fd5b600061167c60648361175090919063ffffffff16565b90506116ab84600860009054906101000a900473ffffffffffffffffffffffffffffffffffffffff1683611312565b6116c884846116c3848661176690919063ffffffff16565b611312565b8273ffffffffffffffffffffffffffffffffffffffff168473ffffffffffffffffffffffffffffffffffffffff167f5dfcf075e1ae2069227b151b6042f30d139f1cb6c3dfd41361ab3fcdaeac83a483604051611725919061195b565b60405180910390a350505050565b600080823b905060008111915050919050565b505050565b505050565b6000818361175e919061265a565b905092915050565b60008183611774919061268b565b905092915050565b600081519050919050565b600082825260208201905092915050565b60005b838110156117b657808201518184015260208101905061179b565b60008484015250505050565b6000601f19601f8301169050919050565b60006117de8261177c565b6117e88185611787565b93506117f8818560208601611798565b611801816117c2565b840191505092915050565b6000602082019050818103600083015261182681846117d3565b905092915050565b6000604051905090565b600080fd5b600080fd5b600073ffffffffffffffffffffffffffffffffffffffff82169050919050565b600061186d82611842565b9050919050565b61187d81611862565b811461188857600080fd5b50565b60008135905061189a81611874565b92915050565b6000819050919050565b6118b3816118a0565b81146118be57600080fd5b50565b6000813590506118d0816118aa565b92915050565b600080604083850312156118ed576118ec611838565b5b60006118fb8582860161188b565b925050602061190c858286016118c1565b9150509250929050565b60008115159050919050565b61192b81611916565b82525050565b60006020820190506119466000830184611922565b92915050565b611955816118a0565b82525050565b6000602082019050611970600083018461194c565b92915050565b60008060006060848603121561198f5761198e611838565b5b600061199d8682870161188b565b93505060206119ae8682870161188b565b92505060406119bf868287016118c1565b9150509250925092565b6000602082840312156119df576119de611838565b5b60006119ed8482850161188b565b91505092915050565b600060ff82169050919050565b611a0c816119f6565b82525050565b6000602082019050611a276000830184611a03565b92915050565b600060208284031215611a4357611a42611838565b5b6000611a51848285016118c1565b91505092915050565b611a6381611916565b8114611a6e57600080fd5b50565b600081359050611a8081611a5a565b92915050565b60008060408385031215611a9d57611a9c611838565b5b6000611aab8582860161188b565b9250506020611abc85828601611a71565b9150509250929050565b611acf81611862565b82525050565b6000602082019050611aea6000830184611ac6565b92915050565b600080fd5b7f4e487b7100000000000000000000000000000000000000000000000000000000600052604160045260246000fd5b611b2d826117c2565b810181811067ffffffffffffffff82111715611b4c57611b4b611af5565b5b80604052505050565b6000611b5f61182e565b9050611b6b8282611b24565b919050565b600067ffffffffffffffff821115611b8b57611b8a611af5565b5b602082029050602081019050919050565b600080fd5b6000611bb4611baf84611b70565b611b55565b90508083825260208201905060208402830185811115611bd757611bd6611b9c565b5b835b81811015611c005780611bec888261188b565b845260208401935050602081019050611bd9565b5050509392505050565b600082601f830112611c1f57611c1e611af0565b5b8135611c2f848260208601611ba1565b91505092915050565b600067ffffffffffffffff821115611c5357611c52611af5565b5b602082029050602081019050919050565b6000611c77611c7284611c38565b611b55565b90508083825260208201905060208402830185811115611c9a57611c99611b9c565b5b835b81811015611cc35780611caf88826118c1565b845260208401935050602081019050611c9c565b5050509392505050565b600082601f830112611ce257611ce1611af0565b5b8135611cf2848260208601611c64565b91505092915050565b60008060408385031215611d1257611d11611838565b5b600083013567ffffffffffffffff811115611d3057611d2f61183d565b5b611d3c85828601611c0a565b925050602083013567ffffffffffffffff811115611d5d57611d5c61183d565b5b611d6985828601611ccd565b9150509250929050565b60008060408385031215611d8a57611d89611838565b5b6000611d988582860161188b565b9250506020611da98582860161188b565b9150509250929050565b7f4e487b7100000000000000000000000000000000000000000000000000000000600052602260045260246000fd5b60006002820490506001821680611dfa57607f821691505b602082108103611e0d57611e0c611db3565b5b50919050565b7f4e487b7100000000000000000000000000000000000000000000000000000000600052601160045260246000fd5b6000611e4d826118a0565b9150611e58836118a0565b9250828201905080821115611e7057611e6f611e13565b5b92915050565b7f4172726179206c656e67746873206d69736d6174636800000000000000000000600082015250565b6000611eac601683611787565b9150611eb782611e76565b602082019050919050565b60006020820190508181036000830152611edb81611e9f565b9050919050565b7f526563697069656e74206c69737420697320656d707479000000000000000000600082015250565b6000611f18601783611787565b9150611f2382611ee2565b602082019050919050565b60006020820190508181036000830152611f4781611f0b565b9050919050565b7f4e487b7100000000000000000000000000000000000000000000000000000000600052603260045260246000fd5b6000611f88826118a0565b91507fffffffffffffffffffffffffffffffffffffffffffffffffffffffffffffffff8203611fba57611fb9611e13565b5b600182019050919050565b7f45524332303a2064656372656173656420616c6c6f77616e63652062656c6f7760008201527f207a65726f000000000000000000000000000000000000000000000000000000602082015250565b6000612021602583611787565b915061202c82611fc5565b604082019050919050565b6000602082019050818103600083015261205081612014565b9050919050565b7f4f776e61626c653a206e6577206f776e657220697320746865207a65726f206160008201527f6464726573730000000000000000000000000000000000000000000000000000602082015250565b60006120b3602683611787565b91506120be82612057565b604082019050919050565b600060208201905081810360008301526120e2816120a6565b9050919050565b7f45524332303a20617070726f76652066726f6d20746865207a65726f2061646460008201527f7265737300000000000000000000000000000000000000000000000000000000602082015250565b6000612145602483611787565b9150612150826120e9565b604082019050919050565b6000602082019050818103600083015261217481612138565b9050919050565b7f45524332303a20617070726f766520746f20746865207a65726f20616464726560008201527f7373000000000000000000000000000000000000000000000000000000000000602082015250565b60006121d7602283611787565b91506121e28261217b565b604082019050919050565b60006020820190508181036000830152612206816121ca565b9050919050565b7f45524332303a20696e73756666696369656e7420616c6c6f77616e6365000000600082015250565b6000612243601d83611787565b915061224e8261220d565b602082019050919050565b6000602082019050818103600083015261227281612236565b9050919050565b7f5472616e73616374696f6e206572726f72000000000000000000000000000000600082015250565b60006122af601183611787565b91506122ba82612279565b602082019050919050565b600060208201905081810360008301526122de816122a2565b9050919050565b7f45524332303a206275726e2066726f6d20746865207a65726f2061646472657360008201527f7300000000000000000000000000000000000000000000000000000000000000602082015250565b6000612341602183611787565b915061234c826122e5565b604082019050919050565b6000602082019050818103600083015261237081612334565b9050919050565b7f45524332303a206275726e20616d6f756e7420657863656564732062616c616e60008201527f6365000000000000000000000000000000000000000000000000000000000000602082015250565b60006123d3602283611787565b91506123de82612377565b604082019050919050565b60006020820190508181036000830152612402816123c6565b9050919050565b7f4f776e61626c653a2063616c6c6572206973206e6f7420746865206f776e6572600082015250565b600061243f602083611787565b915061244a82612409565b602082019050919050565b6000602082019050818103600083015261246e81612432565b9050919050565b7f45524332303a207472616e736665722066726f6d20746865207a65726f20616460008201527f6472657373000000000000000000000000000000000000000000000000000000602082015250565b60006124d1602583611787565b91506124dc82612475565b604082019050919050565b60006020820190508181036000830152612500816124c4565b9050919050565b7f45524332303a207472616e7366657220746f20746865207a65726f206164647260008201527f6573730000000000000000000000000000000000000000000000000000000000602082015250565b6000612563602383611787565b915061256e82612507565b604082019050919050565b6000602082019050818103600083015261259281612556565b9050919050565b7f45524332303a207472616e7366657220616d6f756e742065786365656473206260008201527f616c616e63650000000000000000000000000000000000000000000000000000602082015250565b60006125f5602683611787565b915061260082612599565b604082019050919050565b60006020820190508181036000830152612624816125e8565b9050919050565b7f4e487b7100000000000000000000000000000000000000000000000000000000600052601260045260246000fd5b6000612665826118a0565b9150612670836118a0565b9250826126805761267f61262b565b5b828204905092915050565b6000612696826118a0565b91506126a1836118a0565b92508282039050818111156126b9576126b8611e13565b5b9291505056fea26469706673582212203c4d460bd4341ccc97737465a7f2b263287ff1e240f74bd1b8b175fd9d2067ce64736f6c63430008110033",
  "linkReferences": {},
  "deployedLinkReferences": {}
}